{
  "contractName": "HealthRecords",
  "abi": [
    {
      "inputs": [],
      "stateMutability": "nonpayable",
      "type": "constructor"
    },
    {
      "anonymous": false,
      "inputs": [
        {
          "indexed": true,
          "internalType": "uint256",
          "name": "recordId",
          "type": "uint256"
        },
        {
          "indexed": true,
          "internalType": "address",
          "name": "patient",
          "type": "address"
        },
        {
          "indexed": true,
          "internalType": "address",
          "name": "doctor",
          "type": "address"
        }
      ],
      "name": "RecordCreated",
      "type": "event"
    },
    {
      "inputs": [],
      "name": "recordCount",
      "outputs": [
        {
          "internalType": "uint256",
          "name": "",
          "type": "uint256"
        }
      ],
      "stateMutability": "view",
      "type": "function",
      "constant": true
    },
    {
      "inputs": [
        {
          "internalType": "uint256",
          "name": "",
          "type": "uint256"
        }
      ],
      "name": "records",
      "outputs": [
        {
          "internalType": "string",
          "name": "publicData",
          "type": "string"
        },
        {
          "internalType": "string",
          "name": "encryptedData",
          "type": "string"
        },
        {
          "internalType": "address",
          "name": "patient",
          "type": "address"
        },
        {
          "internalType": "address",
          "name": "doctor",
          "type": "address"
        },
        {
          "internalType": "bool",
          "name": "isPrivate",
          "type": "bool"
        }
      ],
      "stateMutability": "view",
      "type": "function",
      "constant": true
    },
    {
      "inputs": [
        {
          "internalType": "string",
          "name": "_publicData",
          "type": "string"
        },
        {
          "internalType": "string",
          "name": "_encryptedData",
          "type": "string"
        },
        {
          "internalType": "address",
          "name": "_doctor",
          "type": "address"
        },
        {
          "internalType": "bool",
          "name": "_isPrivate",
          "type": "bool"
        }
      ],
      "name": "createRecord",
      "outputs": [],
      "stateMutability": "nonpayable",
      "type": "function"
    },
    {
      "inputs": [
        {
          "internalType": "uint256",
          "name": "_recordId",
          "type": "uint256"
        }
      ],
      "name": "getPublicData",
      "outputs": [
        {
          "internalType": "string",
          "name": "",
          "type": "string"
        }
      ],
      "stateMutability": "view",
      "type": "function",
      "constant": true
    },
    {
      "inputs": [
        {
          "internalType": "uint256",
          "name": "_recordId",
          "type": "uint256"
        }
      ],
      "name": "getEncryptedData",
      "outputs": [
        {
          "internalType": "string",
          "name": "",
          "type": "string"
        }
      ],
      "stateMutability": "view",
      "type": "function",
      "constant": true
    }
  ],
  "bytecode": "0x608060405234801561001057600080fd5b506000600181905550610e57806100286000396000f3fe608060405234801561001057600080fd5b50600436106100575760003560e01c8063344610671461005c5780633dbb4c9d146100905780633ec0b0bc146100ac5780636c86ac5a146100dc578063900407bc1461010c575b600080fd5b61007660048036038101906100719190610851565b61012a565b604051610087959493929190610973565b60405180910390f35b6100aa60048036038101906100a59190610b61565b6102bd565b005b6100c660048036038101906100c19190610851565b610490565b6040516100d39190610c00565b60405180910390f35b6100f660048036038101906100f19190610851565b61066d565b6040516101039190610c00565b60405180910390f35b61011461075e565b6040516101219190610c31565b60405180910390f35b600060205280600052604060002060009150905080600001805461014d90610c7b565b80601f016020809104026020016040519081016040528092919081815260200182805461017990610c7b565b80156101c65780601f1061019b576101008083540402835291602001916101c6565b820191906000526020600020905b8154815290600101906020018083116101a957829003601f168201915b5050505050908060010180546101db90610c7b565b80601f016020809104026020016040519081016040528092919081815260200182805461020790610c7b565b80156102545780601f1061022957610100808354040283529160200191610254565b820191906000526020600020905b81548152906001019060200180831161023757829003601f168201915b5050505050908060020160009054906101000a900473ffffffffffffffffffffffffffffffffffffffff16908060030160009054906101000a900473ffffffffffffffffffffffffffffffffffffffff16908060030160149054906101000a900460ff16905085565b600060015490506040518060a001604052808681526020018581526020013373ffffffffffffffffffffffffffffffffffffffff1681526020018473ffffffffffffffffffffffffffffffffffffffff1681526020018315158152506000808381526020019081526020016000206000820151816000019080519060200190610347929190610764565b506020820151816001019080519060200190610364929190610764565b5060408201518160020160006101000a81548173ffffffffffffffffffffffffffffffffffffffff021916908373ffffffffffffffffffffffffffffffffffffffff16021790555060608201518160030160006101000a81548173ffffffffffffffffffffffffffffffffffffffff021916908373ffffffffffffffffffffffffffffffffffffffff16021790555060808201518160030160146101000a81548160ff0219169083151502179055509050506001600081548092919061042990610cdb565b91905055508273ffffffffffffffffffffffffffffffffffffffff163373ffffffffffffffffffffffffffffffffffffffff16827f162981e8660ef88d8be76f4d61429c8901ed3da7efbc4d5b833aab72ba8f41ae60405160405180910390a45050505050565b606060015482106104d6576040517f08c379a00000000000000000000000000000000000000000000000000000000081526004016104cd90610d6f565b60405180910390fd5b600080600084815260200190815260200160002090508060020160009054906101000a900473ffffffffffffffffffffffffffffffffffffffff1673ffffffffffffffffffffffffffffffffffffffff163373ffffffffffffffffffffffffffffffffffffffff16148061059957508060030160009054906101000a900473ffffffffffffffffffffffffffffffffffffffff1673ffffffffffffffffffffffffffffffffffffffff163373ffffffffffffffffffffffffffffffffffffffff16145b6105d8576040517f08c379a00000000000000000000000000000000000000000000000000000000081526004016105cf90610e01565b60405180910390fd5b8060010180546105e790610c7b565b80601f016020809104026020016040519081016040528092919081815260200182805461061390610c7b565b80156106605780601f1061063557610100808354040283529160200191610660565b820191906000526020600020905b81548152906001019060200180831161064357829003601f168201915b5050505050915050919050565b606060015482106106b3576040517f08c379a00000000000000000000000000000000000000000000000000000000081526004016106aa90610d6f565b60405180910390fd5b600080600084815260200190815260200160002090508060000180546106d890610c7b565b80601f016020809104026020016040519081016040528092919081815260200182805461070490610c7b565b80156107515780601f1061072657610100808354040283529160200191610751565b820191906000526020600020905b81548152906001019060200180831161073457829003601f168201915b5050505050915050919050565b60015481565b82805461077090610c7b565b90600052602060002090601f01602090048101928261079257600085556107d9565b82601f106107ab57805160ff19168380011785556107d9565b828001600101855582156107d9579182015b828111156107d85782518255916020019190600101906107bd565b5b5090506107e691906107ea565b5090565b5b808211156108035760008160009055506001016107eb565b5090565b6000604051905090565b600080fd5b600080fd5b6000819050919050565b61082e8161081b565b811461083957600080fd5b50565b60008135905061084b81610825565b92915050565b60006020828403121561086757610866610811565b5b60006108758482850161083c565b91505092915050565b600081519050919050565b600082825260208201905092915050565b60005b838110156108b857808201518184015260208101905061089d565b838111156108c7576000848401525b50505050565b6000601f19601f8301169050919050565b60006108e98261087e565b6108f38185610889565b935061090381856020860161089a565b61090c816108cd565b840191505092915050565b600073ffffffffffffffffffffffffffffffffffffffff82169050919050565b600061094282610917565b9050919050565b61095281610937565b82525050565b60008115159050919050565b61096d81610958565b82525050565b600060a082019050818103600083015261098d81886108de565b905081810360208301526109a181876108de565b90506109b06040830186610949565b6109bd6060830185610949565b6109ca6080830184610964565b9695505050505050565b600080fd5b600080fd5b7f4e487b7100000000000000000000000000000000000000000000000000000000600052604160045260246000fd5b610a16826108cd565b810181811067ffffffffffffffff82111715610a3557610a346109de565b5b80604052505050565b6000610a48610807565b9050610a548282610a0d565b919050565b600067ffffffffffffffff821115610a7457610a736109de565b5b610a7d826108cd565b9050602081019050919050565b82818337600083830152505050565b6000610aac610aa784610a59565b610a3e565b905082815260208101848484011115610ac857610ac76109d9565b5b610ad3848285610a8a565b509392505050565b600082601f830112610af057610aef6109d4565b5b8135610b00848260208601610a99565b91505092915050565b610b1281610937565b8114610b1d57600080fd5b50565b600081359050610b2f81610b09565b92915050565b610b3e81610958565b8114610b4957600080fd5b50565b600081359050610b5b81610b35565b92915050565b60008060008060808587031215610b7b57610b7a610811565b5b600085013567ffffffffffffffff811115610b9957610b98610816565b5b610ba587828801610adb565b945050602085013567ffffffffffffffff811115610bc657610bc5610816565b5b610bd287828801610adb565b9350506040610be387828801610b20565b9250506060610bf487828801610b4c565b91505092959194509250565b60006020820190508181036000830152610c1a81846108de565b905092915050565b610c2b8161081b565b82525050565b6000602082019050610c466000830184610c22565b92915050565b7f4e487b7100000000000000000000000000000000000000000000000000000000600052602260045260246000fd5b60006002820490506001821680610c9357607f821691505b602082108103610ca657610ca5610c4c565b5b50919050565b7f4e487b7100000000000000000000000000000000000000000000000000000000600052601160045260246000fd5b6000610ce68261081b565b91507fffffffffffffffffffffffffffffffffffffffffffffffffffffffffffffffff8203610d1857610d17610cac565b5b600182019050919050565b7f5265636f726420646f6573206e6f742065786973740000000000000000000000600082015250565b6000610d59601583610889565b9150610d6482610d23565b602082019050919050565b60006020820190508181036000830152610d8881610d4c565b9050919050565b7f4e6f7420617574686f72697a656420746f207669657720656e6372797074656460008201527f2064617461000000000000000000000000000000000000000000000000000000602082015250565b6000610deb602583610889565b9150610df682610d8f565b604082019050919050565b60006020820190508181036000830152610e1a81610dde565b905091905056fea2646970667358221220bc1674b008f69ab4ced6d4df4f02b026b355972637f2be3749f99734cdb7113f64736f6c634300080d0033",
  "immutableReferences": {},
  "source": "// SPDX-License-Identifier: MIT\r\npragma solidity >=0.4.22 <0.9.0;\r\n\r\ncontract HealthRecords {\r\n    struct Record {\r\n        string publicData;\r\n        string encryptedData;\r\n        address patient;\r\n        address doctor;\r\n        bool isPrivate; // This flag is still useful for managing access to encrypted data.\r\n    }\r\n\r\n    mapping(uint256 => Record) public records;\r\n    uint256 public recordCount;\r\n\r\n    event RecordCreated(uint256 indexed recordId, address indexed patient, address indexed doctor);\r\n\r\n    constructor() {\r\n        recordCount = 0;\r\n    }\r\n\r\n    // Function to create a new record\r\n    function createRecord(\r\n        string memory _publicData,\r\n        string memory _encryptedData,\r\n        address _doctor,\r\n        bool _isPrivate\r\n    ) public {\r\n        uint256 newRecordId = recordCount;\r\n        records[newRecordId] = Record({\r\n            publicData: _publicData,\r\n            encryptedData: _encryptedData,\r\n            patient: msg.sender,\r\n            doctor: _doctor,\r\n            isPrivate: _isPrivate\r\n        });\r\n        recordCount++;\r\n        emit RecordCreated(newRecordId, msg.sender, _doctor);\r\n    }\r\n\r\n    // Function to retrieve public data (accessible to everyone)\r\n    function getPublicData(uint256 _recordId) public view returns (string memory) {\r\n        require(_recordId < recordCount, \"Record does not exist\");\r\n        Record storage record = records[_recordId];\r\n        return record.publicData; // Public data can be accessed by anyone\r\n    }\r\n\r\n    // Function to retrieve encrypted data (only accessible to authorized individuals)\r\n    function getEncryptedData(uint256 _recordId) public view returns (string memory) {\r\n        require(_recordId < recordCount, \"Record does not exist\");\r\n        Record storage record = records[_recordId];\r\n\r\n        // Only the patient or the doctor can view the encrypted data\r\n        require(\r\n            msg.sender == record.patient || msg.sender == record.doctor,\r\n            \"Not authorized to view encrypted data\"\r\n        );\r\n        return record.encryptedData;\r\n    }\r\n}\r\n",
  "sourcePath": "D:\\PatientRecords\\contracts\\HealthRecords.sol",
  "compiler": {
    "name": "solc",
    "version": "0.8.13+commit.abaa5c0e.Emscripten.clang"
  },
  "schemaVersion": "3.4.16",
  "updatedAt": "2024-09-30T06:38:39.152Z",
  "networkType": "ethereum",
  "devdoc": {
    "kind": "dev",
    "methods": {},
    "version": 1
  },
  "userdoc": {
    "kind": "user",
    "methods": {},
    "version": 1
  }
}